:060000000A128A1110280B
:10000800FE00030EF7000A08F800831203137F08A6
:10001800F9000A128A11862D0A128A1113280A1267
:100028008A11B2260A128A11E4000A128A11B3262A
:100038000A128A11E50083132030840046300A1220
:100048008A11A026FA01FB01FC01FD0183010A12B5
:100058008A112E288501073083168500073003177B
:10006800880083120313880183168801831286018E
:1000780083168601031789018312031387018030D1
:10008800831687008312890183168901243098001A
:100098009030831298001930831699000A128A1139
:1000A8003E260A128A110A128A118D260A128A110C
:1000B80001300A128A11C2240A128A11E000E101F1
:1000C8006008A8006108A9002908C7002808C60018
:1000D8003030C8000030C9000A128A11FD250A1202
:1000E8008A114708A5004608A4006430CC000030F7
:1000F800CD002508CF002408CE000A128A117C23DF
:100108000A128A114D08A3004C08A2002308D8003F
:100118002208D70040300A128A11D5230A128A1100
:100128002308803AFF0080307F02031D9D28243079
:1001380022020318A228831203130814831203133C
:10014800081CB4282308803AFF0080307F02031D72
:10015800AF28283022020318B42883120313081486
:10016800831203132308803AFF0080307F02031DA7
:10017800BF2829302202031CC42883120313081045
:1001880005300A128A11C2240A128A11E000E1011C
:100198006008AA006108AB002B08C7002A08C6003F
:1001A8000530C8000030C9000A128A11FD250A125C
:1001B8008A114708C5004608C4000530CC00003045
:1001C800CD004508C7004408C6005A30C8000030B2
:1001D800C9000A128A11FD250A128A114708CF00A0
:1001E8004608CE000A128A117C230A128A114D0889
:1001F800E3004C08E2006430CC000030CD00630816
:10020800CF006208CE000A128A117C230A128A11D2
:100218004D08A1004C08A0002108D8002008D700EC
:100228002C300A128A11D5230A128A1109300A12AF
:100238008A11C2240A128A11E000E1016008A600AE
:100248006108A7002708D8002608D70036300A1208
:100258008A11D5230A128A110A128A1113220A1244
:100268008A110030D000D1000030D200D3000A1229
:100278008A115D260A128A11403083120313D000B6
:100288000030D1000A128A11DA250A128A110130C7
:10029800D0000030D1000030D200D3000A128A11F9
:1002A8005D260A128A11493083120313D000803068
:1002B800D1000A128A11DA250A128A110030D000F8
:1002C800D1000530D2000030D3000A128A115D2611
:1002D8000A128A112C3083120313D0000030D10087
:1002E8000A128A11DA250A128A110130D000003068
:1002F800D1000530D2000030D3000A128A115D26E1
:100308000A128A11433083120313D0008030D100BF
:100318000A128A11DA250A128A110030D000D10097
:100328000C30D2000030D3000A128A115D260A125E
:100338008A11363083120313D0000030D1000A121C
:100348008A11DA250A128A110130D0000030D10052
:100358000C30D2000030D3000A128A115D260A122E
:100368008A113F3083120313D0008030D1000A1263
:100378008A11DA250A128A110A128A11AD260A127E
:100388008A11831203132108803AFF0080307F020C
:10039800031DD02929302002031CD62983120313F8
:1003A8008814D9298312031388103630E000C83026
:1003B800600203185C282308803AFF0080307F021F
:1003C800031DE8291E30220203185C288312031338
:1003D80064036504031D0E2A0A128A11AD260A1247
:1003E8008A11013083120313D0000030D10000308D
:1003F800D200D3000A128A115D260A128A110A1243
:100408008A11AD260A128A110A128A1113220A12B7
:100418008A115C280130E4000030E5005C28463091
:1004280083120313C6008030C7000A128A111E26E1
:100438000A128A110D300A128A1197260A128A1195
:100448000A300A128A1197260A128A11E830C60061
:100458000330C7000A128A1158250A128A1125305A
:1004680083120313C6008030C7000A128A111E26A1
:100478000A128A110D300A128A1197260A128A1155
:100488000A300A128A1197260A128A11E830C60021
:100498000330C7000A128A1158250A128A1101303E
:1004A80083120313C6008030C7000A128A111E2661
:1004B8000A128A110D300A128A1197260A128A1115
:1004C8000A300A128A1197260A128A11E830C600E1
:1004D8000330C7000A128A1158250A128A113930C6
:1004E80083120313C6008030C7000A128A111E2621
:1004F8000A128A110D300A128A1197260A128A11D5
:100508000A300A128A1197260A128A11E830C600A0
:100518000330C7000A128A1158250A128A1140307E
:1005280083120313C6000030C7000A128A111E2660
:100538000A128A110D300A128A1197260A128A1194
:100548000A300A128A1197260A128A11E830C60060
:100558000330C7000A128A1158250A128A11193065
:1005680083120313C6008030C7000A128A111E26A0
:100578000A128A110D300A128A1197260A128A1154
:100588000A300A128A1197260A128A11E830C60020
:100598000330C7000A128A1158250A128A112F300F
:1005A80083120313C6008030C7000A128A111E2660
:1005B8000A128A112C30C6000030C7000A128A11AC
:1005C8001E260A128A11E830C6000330C7000A1234
:1005D8008A1158250A128A11433083120313C60060
:1005E8008030C7000A128A111E260A128A110D309D
:1005F8000A128A1197260A128A110A300A128A11D7
:1006080097260A128A11E830C6000330C7000A127A
:100618008A1158250A128A111A300A128A11972645
:100628000A128A11E830C6000330C7000A128A117C
:10063800582583120313E401E5010800FF1B2C2B46
:1006480083137F1883170008840A0319FF0A080018
:1006580003308A000408840A820700344134543481
:100668002B3443344D34473453343D3422342B3403
:100678003934313439343734383436343334323425
:10068800393430343034343422340034443465342A
:1006980067345F34433465346C3473346934753487
:1006A80073340034413454342B3443344D34473498
:1006B80046343D3431340034483455344D344934AB
:1006C80044344934543459343A3400345434453475
:1006D8004D3450343A3400346C3475347834003442
:1006E80052344834003441345434003443340034F0
:1006F800D201CD1F862BCC09CD09CC0A0319CD0A0E
:10070800D201D20ACF1F912BCE09CF09CE0A0319E5
:10071800CF0A0130D0005008D206D301D4014C08CA
:100728004D040319C82BD101D10ACD1BA72B0130C9
:100738000310CC0DCD0DFF3E031D9C2B0130D000C6
:100748005008D107992B01300310D30DD40DFF3E6B
:10075800031DA82B4D084F02031DB42B4C084E0255
:10076800031CBD2B4C08CE024D08031CCF03CF023F
:10077800531401300310CD0CCC0CFF3E031DBE2BCF
:100788000130D102031DA72B52080319D02BD3091E
:10079800D409D30A0319D40A5408CD005308CC004D
:1007A8000800DF00DD01DE015808803AFF008030D4
:1007B8007F02031DE12B01305702031C192C0A305C
:1007C80083120313C6000030C7005808C900570831
:1007D800C8000A128A1177240A128A114708DC0015
:1007E8004608DB005B08303ED9005D085F07DA0089
:1007F8005A0884005908831380000130DD07031864
:10080800DE0A0030DE070A30CC000030CD00580880
:10081800CF005708CE000A128A117C230A128A11C7
:100828004D08D8004C08D700D82B831203135F0853
:100838000A128A1126245D085F07D9005908840026
:1008480080010800D400D201D301D501D601550892
:100858005407C600460884008313000803193B2C7C
:100868000130D5070318D60A0030D6072B2CFF30E5
:10087800D5070318D60AFF30D607D61B5C2C5508B7
:100888005407C600460884000008C7005208483EBE
:10089800840047088000FF30D5070318D60AFF30C8
:1008A800D6070130D2070318D30A0030D307412CEA
:1008B800D501D6015508483E8400000803190800F0
:1008C8005508483E84000008C60055085407C7006C
:1008D80047088400460880000130D5070318D60A67
:1008E8000030D6075E2CCC01C91F812CC809C90964
:1008F800C80A0319C90ACC01CC0AC71F882CC60923
:10090800C709C60A0319C70A460847040319B52CBC
:10091800CB01CB0AC71B9C2C01300310C60DC70D99
:10092800FF3E031D912C0130CA004A08CB078E2CCC
:1009380047084902031DA22C46084802031CAA2C9A
:100948004608C8024708031CC903C902013003103E
:10095800C70CC60CFF3E031DAB2C0130CB02031D98
:100968009C2C4C080319BD2CC809C909C80A0319CD
:10097800C90A4908C7004808C600080083120313BB
:10098800D50055089F00803083169F0032308312AF
:10099800C6000030C7000A128A1158250A128A11A7
:1009A800831203139F149F18D72C83161E088312D3
:1009B800CD00CE014D08CF004E08D0001E08CD0056
:1009C800CE014D08D1004E08D2005208CE00510881
:1009D800CD004D08CE00CD014F084D04D30050087E
:1009E8004E04D4005308080083120313CF000911E2
:1009F8000F300605CD004F08F0394D0486000A1265
:100A08008A1178260A128A110F30831203130605F9
:100A1800CD004F08CE0003300310CE0DFF3E031D5E
:100A2800102D03104E0DF0394D0486000A128A115C
:100A380078260A128A110A3083120313C60000307E
:100A4800C7000A128A1158250800CF0009150F306F
:100A58000605CD004F08F0394D0486000A128A11A8
:100A680078260A128A110F30831203130605CD0067
:100A78004F08CE0003300310CE0DFF3E031D3F2D5F
:100A880003104E0DF0394D0486000A128A1178269B
:100A98000A128A110A3083120313C6000030C700F5
:100AA8000A128A1158250800C901CA014A08803A61
:100AB800C8004708803A4802031D642D46084902C9
:100AC8000318080083120313CB01CC0101308312F1
:100AD8000313CB070318CC0A0030CC074C08803A24
:100AE800FF0083307F02031D7B2DE8304B02031C7F
:100AF8006A2D013083120313C9070318CA0A00308C
:100B0800CA075A2D0130FA070318FB0A0030FB0701
:100B18000C107B08803AFF0080307F02031D962D61
:100B280079307A02031CA62D8312031385156430CD
:100B3800F0000030F1000A128A11B2250A128A1157
:100B4800FA01FB018312031385117908FF00780865
:100B58008A00770E8300FE0E7E0E0900F301F40171
:100B68007408803AF2007108803A7202031DBE2DA3
:100B78007008730203180800F501F6010130F50743
:100B88000318F60A0030F6077608803AFF0083302B
:100B98007F02031DD12DE8307502031CC22D0130E0
:100BA800F3070318F40A0030F407B42D5108FF00C6
:100BB800500884000A128A1122230A128A11003A64
:100BC800031908005108FF00500884000A128A110E
:100BD80022230A128A110A128A1129250A128A1155
:100BE800013083120313D0070318D10A0030D1074C
:100BF800DA2DCA01CB01461C072E4808CA0703187C
:100C0800CB0A4908CB0701300310C80DC90DFF3EB8
:100C1800031D082E01300310C70CC60CFF3E031D30
:100C28000F2E46084704031DFF2D4B08C7004A082E
:100C3800C60008004708FF00460884000A128A1107
:100C480022230A128A11003A031908004708FF00F4
:100C5800460884000A128A1122230A128A1199006E
:100C68000130C6070318C70A0030C7070C1E3A2E02
:100C78000C121E2E8312891002300A128A11F824CF
:100C88000A128A1128300A128A11F8240A128A11C3
:100C98000A128A11A8260A128A1100308312031335
:100CA800D000D1000030D200D3000A128A115D268C
:100CB80008006A2E5208803E0A128A11F824080099
:100CC8005208C03E0A128A11F82408005108003A56
:100CD80003196F2E772E5008003A03195E2E013A39
:100CE8000319642E772E080009140A30C600003054
:100CF800C7000A128A1158250A128A11831203138F
:100D080009100A30C6000030C7000A128A11582597
:100D180008003130831203139000C0308B0001307B
:100D280083168C00080083120313C6004608990036
:100D38000C1E9C2E0C12080064008001840A040614
:100D4800031900340406A12E0E300A128A11F82461
:100D5800080001300A128A11F8240800013400340E
:02400E00E42CA0
:00000001FF
